:020000040000FA
:060000004CEF69F0120054
:0600080004EF50F01200AD
:060018000CEF50F0120095
:06A000004CEF69F01200B4
:02A00600120046
:06A008001CEF50F01200F5
:02A00E0012003E
:05A0100000000000004B
:06A0180025EF50F01200DC
:02A01E0002003E
:10A0200010A00000000E00000500000061CD00003F
:08A03000FD000000010000002A
:08A03800DACFE4FFE2CFDAFF0A
:10A04000E652E552E5CFDAFF1100D8CFE4FFE0CFCA
:10A05000E4FFE46EDACFE4FFE2CFDAFFE652E55246
:10A06000E5CFDAFFE550E5CFE0FFE5CFD8FF100000
:10A07000BAEC64F025EC65F05AEC63F05AEC5FF052
:10A08000E66A3FEC60F0E5521200DDEC66F0000994
:10A0900001E1FBD70F014869496938EF50F081B001
:10A0A0002AD0120EE66E020EE66E240EE66E2CEC40
:10A0B00061F0E552E552E5520E0101CE14F002CEF8
:10A0C00015F003CE16F004CE17F0012B000E02237C
:10A0D00003230423D880580E14541B0E1554000E6D
:10A0E0001654000E175406E2016B026B036B046BEF
:10A0F000010E006F1CD0120EE66E020EE66E5F0EB1
:10A10000E66E2CEC61F0E552E552E5520E010005D9
:10A110000EE1015102110311041104E1006B010E63
:10A1200008D005D00107000E025B035B045B000E44
:10A1300000D01200E66AE66A240EE66ED20EE66EE3
:10A140005EEC62F0E552E552E552E5522A0EE66E0B
:10A15000E66A220EE66ED20EE66E5EEC62F0E55224
:10A16000E552E552E552620EE66EE66A200EE66EB4
:10A17000D20EE66E5EEC62F0E552E552E552E55233
:10A18000E66A010EE66E1D0EE66ED20EE66E5EEC1F
:10A1900062F0E552E552E552E5521E0EE66E010E02
:10A1A000E66E1B0EE66ED20EE66E5EEC62F0E552D7
:10A1B000E552E552E552E66A020EE66E180EE66ECC
:10A1C000D20EE66E5EEC62F0E552E552E552E552E3
:10A1D0000C0EE66E020EE66E140EE66ED20EE66E03
:10A1E0005EEC62F0E552E552E552E552E66A060E93
:10A1F000E66E110EE66ED20EE66E5EEC62F0E55291
:10A20000E552E552E552240EE66E060EE66E030EAA
:10A21000E66ED20EE66E5EEC62F0E552E552E55275
:10A22000E552010EE66E070EE66E000EE66ED20EE9
:10A23000E66E5EEC62F0E552E552E552E552240E20
:10A24000E66E070EE66E030EE66ED20EE66E5EEC6E
:10A2500062F0E552E552E552E552150EE66E040E47
:10A26000E66EF80EE66ED10EE66E5EEC62F0E5523A
:10A27000E552E552E552780EE66EE66AF60EE66EB7
:10A28000D10EE66E5EEC62F0E552E552E552E55223
:10A29000780EE66E010EE66EF40EE66ED10EE66EF8
:10A2A0005EEC62F0E552E552E552E552780EE66E5C
:10A2B000020EE66EF20EE66ED10EE66E5EEC62F017
:10A2C000E552E552E552E552780EE66E030EE66E73
:10A2D000F00EE66ED10EE66E5EEC62F0E552E552EF
:10A2E000E552E552780EE66E040EE66EF20EE66E6C
:10A2F000D10EE66E5EEC62F0E552E552E552E552B3
:10A30000780EE66E050EE66EEE0EE66ED10EE66E89
:10A310005EEC62F0E552E552E552E552780EE66EEB
:10A32000060EE66EEC0EE66ED10EE66E5EEC62F0A8
:10A33000E552E552E552E5521200D9CFE6FFE1CFF2
:10A34000D9FF040EE126DE6ADD6A020EDB6A030E27
:10A35000DB6AFE0EDB50DE6EDD6ADECF14F0DDCF91
:10A3600015F014C015F0146A14C0DEFF15C0DDFF2F
:10A37000FD0EDB50E76E000EDFCF14F0010EDBCFD9
:10A3800015F0E7501426000E152214C0DEFF15C08C
:10A39000DDFFDECF14F0DDCF15F0060ED8901532BC
:10A3A0001432E804FBE114C0DEFF15C0DDFFDECF90
:10A3B00014F0DDCF15F0000E1416020E151614C0A1
:10A3C000DBFF030E15C0DBFF020EDBCF14F0030E24
:10A3D000DBCF15F015C014F0156AD8901432020EB8
:10A3E00014C0DBFF030E15C0DBFFD950020FE96E6E
:10A3F000DACFEAFFEE50ED100CE0DECF14F0DDCF47
:10A4000015F0000E1426FC0E152214C0DEFF15C038
:10A41000DDFFDECF14F0DDCF15F014C0F3FF15C063
:10A42000F4FF040EE15C03E200D0E16AE552E16E64
:10A43000E552E7CFD9FF1200D9CFE6FFE1CFD9FF30
:10A44000020EE126FD0EDBCFE9FFFE0EDBCFEAFFB9
:10A45000010EEFCFDBFFFB0EDBCFE9FFFC0EDBCF06
:10A46000EAFFEFCFDFFFFB0EDBCFE9FFFC0EDBCF18
:10A47000EAFFEF50E66EFD0EDBCFE9FFFE0EDBCF0D
:10A48000EAFFE552E750EF6EFB0EDBCFE9FFFC0E73
:10A49000DBCFEAFF010EDBCFEFFF020EE15C02E251
:10A4A000E16AE552E16EE552E7CFD9FF1200D9CF5C
:10A4B000E6FFE1CFD9FFFB0EDBCF14F0FC0EDBCFC4
:10A4C00015F0F90EDBCF16F0FA0EDBCF17F01550B2
:10A4D0001718E8AE02D0173404D01650145C175089
:10A4E000155830E2F90EDBCF16F0DB06FA0EDBCFA3
:10A4F00017F001E2DB06FD0EDB501624146EFE0E93
:10A50000DB501720156E14C0E6FF15C0E6FFFB0EEA
:10A51000DBCF1AF0DB2AFC0EDBCF1BF001E3DB2ADA
:10A52000FD0EDB501A24186EFE0EDB501B20196E38
:10A5300018C0E6FF19C0E6FF7FDFE552E552E5529D
:10A54000E552B9D7FD0EDBCF14F0FE0EDBCF15F0D0
:10A5500014C0F3FF15C0F4FF00D0E552E7CFD9FFD8
:10A560001200D9CFE6FFE1CFD9FFFD0EDBCF14F00B
:10A57000FE0EDBCF15F00001800E15141EE0FD0E5F
:10A58000DB1C146EFE0EDB1C156EFD0E14C0DBFF13
:10A59000FE0E15C0DBFF010EE76EFD0EDBCF14F0E3
:10A5A000FE0EDBCF15F0E7501426000E1522FD0E2F
:10A5B00014C0DBFFFE0E15C0DBFFFD0EDBCF14F079
:10A5C000FE0EDBCF15F014C0F3FF15C0F4FF00D072
:10A5D000E552E7CFD9FF1200D9CFE6FFE1CFD9FF8F
:10A5E000100EE126DE6ADD6A020EDB6A030EDB6A0C
:10A5F000200EF36E040EF3CFDBFF200EF36E050E7C
:10A60000F3CFDBFF200EF36E060EF3CFDBFF200E41
:10A61000F36E070EF3CFDBFF200EF36E080EF3CFC1
:10A62000DBFF090EDB6A0A0EDB6A0B0EDB6A0C0E1F
:10A63000DB6AFD0EDBCFE6FFFE0EDBCFE6FF91DF30
:10A64000E552E552020EF3CFDBFF030EF4CFDBFF42
:10A65000D950020FE96EDACFEAFFEE50ED1001E1BA
:10A66000CED0020EDBCF14F0030EDBCF15F00A0EB6
:10A670000D6E0E6A14C008F015C009F07FEC67F08B
:10A6800004C014F005C015F00E0E14C0DBFF0F0E51
:10A6900015C0DBFF0E0EDBCF14F00F0EDBCF15F075
:10A6A000D890155004E60A0E145C000E155849E3C4
:10A6B0000E0EDBCF16F00F0EDBCF17F00A0E165E74
:10A6C000000E175A410E1626000E1722090EDBCF78
:10A6D00014F00A0EDBCF15F0FB0EDB501424E96EEC
:10A6E000FC0EDB501520EA6E16C0EFFF090EDBCF23
:10A6F00014F00A0EDBCF15F0FB0EDB501424E96ECC
:10A70000FC0EDB501520EA6E0D0EEFCFDBFF0E0EB8
:10A71000DBCF16F00F0EDBCF17F0300E1626000E33
:10A720001722D950040F146EDACF15F0090EDB5042
:10A730001424E96E0A0EDB501520EA6E16C0EFFFF6
:10A7400044D00E0EDBCF16F00F0EDBCF17F0300E1D
:10A750001626000E1722090EDBCF14F00A0EDBCFEF
:10A7600015F0FB0EDB501424E96EFC0EDB501520B7
:10A77000EA6E16C0EFFF090EDBCF14F00A0EDBCF36
:10A7800015F0FB0EDB501424E96EFC0EDB50152097
:10A79000EA6E0D0EEFCFDBFF0E0EDBCF16F00F0EC5
:10A7A000DBCF17F0300E1626000E1722D950040FFB
:10A7B000146EDACF15F0090EDB501424E96E0A0E80
:10A7C000DB501520EA6E16C0EFFF090EDB2A0A0ED9
:10A7D00001E3DB2A146E156A020EDBCF08F0030ECC
:10A7E000DBCF09F014C00DF015C00EF07FEC67F060
:10A7F000020E08C0DBFF030E09C0DBFF29D7D950CA
:10A80000090FE96EDACFEAFFEE50ED1026E1090EEE
:10A81000DBCF14F00A0EDBCF15F0FB0EDB50142457
:10A82000E96EFC0EDB501520EA6E300EEF6E090E5D
:10A83000DBCF14F00A0EDBCF15F0FB0EDB50142437
:10A84000E96EFC0EDB501520EA6E0D0EEFCFDBFF3C
:10A85000090EDB2A0A0E01E3DB2AFD0EDBCFE6FF41
:10A86000FE0EDBCFE6FF7DDEE552E552020EF3CFB2
:10A87000DBFF030EF4CFDBFF140E146E156A020E1D
:10A88000DBCF08F0030EDBCF09F014C00DF015C0CC
:10A890000EF07FEC67F008C0DEFF09C0DDFFDECF01
:10A8A00014F0DDCF15F0153404E214500008000E4A
:10A8B000155400E2FD0EDBCF14F0FE0EDBCF15F0D9
:10A8C0000001800E15144FE0090EDBCF14F00A0EC4
:10A8D000DBCF15F0FB0EDB501424E96EFC0EDB50D1
:10A8E0001520EA6E2D0EEF6E090EDBCF14F00A0E66
:10A8F000DBCF15F0FB0EDB501424E96EFC0EDB50B1
:10A900001520EA6E0D0EEFCFDBFFD950040F146E49
:10A91000DACF15F0090EDB501424E96E0A0EDB5075
:10A920001520EA6E2D0EEF6E090EDB2A0A0E01E3EA
:10A93000DB2AF70EDBCFE6FFF80EDBCFE6FFF90EE2
:10A94000DBCFE6FFFA0EDBCFE6FFDECFE6FFDDCFA3
:10A95000E6FF010EE66EE66A78EC60F0146E080E13
:10A96000E15E145018D0F70EDBCFE6FFF80EDBCF18
:10A97000E6FFF90EDBCFE6FFFA0EDBCFE6FFDECF18
:10A98000E6FFDDCFE6FFE668E66878EC60F0146E7F
:10A99000080EE15E1450090EDBCF14F00A0EDBCF77
:10A9A00015F0FB0EDB501424E96EFC0EDB50152075
:10A9B000EA6EEF6AD950040F146EDACF15F0090E63
:10A9C000DB501424E96E0A0EDB501520EA6EEF6AA4
:10A9D000090EDBCF14F00A0EDBCF15F01406000EC3
:10A9E000155A14C0E6FF15C0E6FFE66EE66AFB0ED8
:10A9F000DBCFE6FFFC0EDBCFE6FF59DD166E060E61
:10AA0000E15E1650100EE15C03E200D0E16AE5520F
:10AA1000E16EE552E7CFD9FF1200D9CFE6FFE1CFD3
:10AA2000D9FF270EE126200EDF6EDE52DD6EF36EBB
:10AA3000020EF3CFDBFF200EF36E030EF3CFDBFF2E
:10AA4000040EDB6A0B0EDB6A0C0EDB6A0D0EDB6A92
:10AA50000E0EDB6A0F0EDB6A100EDB6A110EDB6A6C
:10AA6000120EDB6A130EDB6A140EDB6A150EDB6A4C
:10AA7000010EF36E160EF3CFDBFF170EDB6A180E16
:10AA8000DB6A190EDB6A1A0EDB6A1B0EDB6A1C0E10
:10AA9000DB6A1D0EDB6A1E0EDB6A1F0EDB6A230EED
:10AAA000F36E200EF3CFDBFFF36E210EF3CFDBFF4F
:10AAB000220EDB6A230EDB68240EDB68250EDB68C2
:10AAC000260EDB6845EC50F09AEC50F0C450166E40
:10AAD00016C017F0166AC35000011624146E000E3B
:10AAE0001720156E0C0E14C0DBFF0D0E15C0DBFF1A
:10AAF000300EE66EE66A000EE66EE66AE0C0E6FF3D
:10AB0000E1C0E6FF0C0EDBCFE6FF0D0EDBCFE6FF6C
:10AB100063DD146E080EE15E14500C0EDBCFE6FF11
:10AB20000D0EDBCFE6FFE80E146ED10E156E166A21
:10AB300014C0E6FF15C0E6FF16C0E6FFA00EE66EE5
:10AB4000000EE66E29EC67F0176E070EE15E1750F7
:10AB50000C0EE66EE66AA00EE66E000EE66EACEC3B
:10AB600062F0E552E552E552E5524FEC50F0080E26
:10AB7000E66E3DEC64F0E552E66ED950100FE96EDA
:10AB8000DACFEAFFE552E750EE6EED6A100EDBCF4A
:10AB900014F0110EDBCF15F0200E145E000E155AC6
:10ABA000050E1502F3CF15F01402F3CF14F0F45094
:10ABB0001526090E0D6E0E6A14C008F015C009F0B6
:10ABC0007FEC67F008C014F009C015F0100E14C037
:10ABD000DBFF110E15C0DBFF100EDBCFE6FF110E01
:10ABE000DBCFE6FFE40E146ED10E156E166A14C0AC
:10ABF000E6FF15C0E6FF16C0E6FF600EE66E000E2B
:10AC0000E66E29EC67F0176E070EE15E17500C0E2A
:10AC1000E66E010EE66E600EE66E000EE66EACECC1
:10AC200062F0E552E552E552E552030EE66E3DEC68
:10AC300064F0E552E76E050EE7CFDBFF020EE66E2D
:10AC40003DEC64F0E552E76E060EE7CFDBFFDBCFAD
:10AC5000E6FF050EDBCFE6FF9DEC51F0E552E55235
:10AC60000E0EF3CFDBFF0F0EF4CFDBFF060EDB5033
:10AC7000010BE66ED950120FE96EDACFEAFFE5520A
:10AC8000E750EE6EED6AD950120FE96EDACFEAFFA7
:10AC9000EE50ED1035E04C0EE66EE66A060EE66EFE
:10ACA000E66AE0C0E6FFE1C0E6FF0E0EDBCFE6FF9E
:10ACB0000F0EDBCFE6FF90DC146E080EE15E145041
:10ACC000F3CFE0F0F4CFE1F00C0EE66E060EE66E88
:10ACD000D9CFE6FFDACFE6FFACEC62F0E552E55201
:10ACE000E552E5520C0EE66E060EE66EE0C0E6FF9B
:10ACF000E1C0E6FFACEC62F0E552E552E552E55208
:10AD0000120EDB6A130EDB6A050EE66E3DEC64F094
:10AD1000E552E76E070EE7CFDBFF040EE66E3DEC73
:10AD200064F0E552E76E080EE7CFDBFFDBCFE6FF0E
:10AD3000070EDBCFE6FF9DEC51F0E552E5520E0E1B
:10AD4000F3CFDBFF0F0EF4CFDBFF080EDB50010B60
:10AD5000E66ED950120FE96EDACFEAFFE552E750FE
:10AD6000EE6EED6AD950120FE96EDACFEAFFEE50BF
:10AD7000ED1035E04C0EE66EE66A070EE66EE66A0A
:10AD8000E0C0E6FFE1C0E6FF0E0EDBCFE6FF0F0EF0
:10AD9000DBCFE6FF21DC146E080EE15E1450F3CF2A
:10ADA000E0F0F4CFE1F00C0EE66E070EE66ED9CFC0
:10ADB000E6FFDACFE6FFACEC62F0E552E552E55291
:10ADC000E5520C0EE66E070EE66EE0C0E6FFE1C04F
:10ADD000E6FFACEC62F0E552E552E552E552120EA8
:10ADE000DB6A130EDB6A070EE66E3DEC64F0E5529B
:10ADF000E76E090EE7CFDBFF060EE66E3DEC64F072
:10AE0000E552E76E0A0EE7CFDBFFDBCFE6FF090E68
:10AE1000DBCFE6FF9DEC51F0E552E5520E0EF3CF8D
:10AE2000DBFF0F0EF4CFDBFF0A0EDB50146E156A4A
:10AE3000FE0E1416FF0E1516120E14C0DBFF130EB5
:10AE400015C0DBFFD950120FE96EDACFEAFFEE50E2
:10AE5000ED1037E00E0EDBCF14F00F0EDBCF15F048
:10AE6000D880155004E7C40E145CFF0E155829E273
:10AE70000E0EDBCF16F00F0EDBCF17F0173404E306
:10AE80001650BA08FF0E17541CE2240EE66E060E8A
:10AE9000E66E030EE66ED20EE66E5EEC62F0E552F2
:10AEA000E552E552E552240EE66E070EE66E030EFD
:10AEB000E66ED20EE66E5EEC62F0E552E552E552C9
:10AEC000E55225EC65F0E66ABDEC64F0E552180E3B
:10AED000F3CFDBFF190EF4CFDBFF010EE66EBDEC06
:10AEE00064F0E5521C0EF3CFDBFF1D0EF4CFDBFF49
:10AEF000020EE66EBDEC64F0E5521E0EF3CFDBFFF2
:10AF00001F0EF4CFDBFF030EE66EBDEC64F0E552DE
:10AF10001A0EF3CFDBFF1B0EF4CFDBFF130EC26E56
:10AF2000180EDBCF14F0190EDBCF15F0D8901550AA
:10AF300004E6840E145C030E15580CE2360EE66E21
:10AF4000040EE66E230EE66E2CEC61F0E552E5523F
:10AF5000E5520BD0360EE66E040EE66E200EE66E5F
:10AF60002CEC61F0E552E552E5521A0EDBCF14F0FD
:10AF70001B0EDBCF15F0D890155004E6840E145C40
:10AF8000030E15580CE2190EE66E040EE66E230E43
:10AF9000E66E2CEC61F0E552E552E5520BD0190E4D
:10AFA000E66E040EE66E200EE66E2CEC61F0E552C5
:10AFB000E552E5521C0EDBCF14F01D0EDBCF15F071
:10AFC000153404E214509808030E155423E21E0EA3
:10AFD000DBCF16F01F0EDBCF17F0173404E216504C
:10AFE0009808030E175416E2780EE66E020EE66E0F
:10AFF0007C0EE66E2CEC61F0E552E552E552780EDF
:10B00000E66E040EE66E7C0EE66E2CEC61F0E55208
:10B01000E552E5521C0EDBCF14F01D0EDBCF15F010
:10B02000153404E21450AC08030E155415E21E0E3C
:10B03000DBCF16F01F0EDBCF17F0173404E21650EB
:10B04000AC08030E175408E2250EDB6A260EDB6AF5
:10B05000230EDB68240EDB681E0EDBCF14F01F0E00
:10B06000DBCF15F0D890155004E6AC0E145C030E3F
:10B07000155813E2D950250FE96EDACFEAFFEE50EA
:10B08000ED100BE1230EDB6A240EDB6A010EF36E7A
:10B09000250EF3CFDBFF260EDB6A1C0EDBCF14F090
:10B0A0001D0EDBCF15F0D890155004E6AC0E145CE5
:10B0B000030E155816E2D950250FE96EDACFEAFFD4
:10B0C000EE50ED100EE1010EF36E230EF3CFDBFF19
:10B0D000240EDB6A010EF36E250EF3CFDBFF260E86
:10B0E000DB6A1C0EDBCF16F01D0EDBCF17F01E0E39
:10B0F000DB50165C146E1F0EDB501758156E15349E
:10B1000004E214503208000E15543AE21C0EDBCF54
:10B1100014F01D0EDBCF15F0D890155004E6980EF4
:10B12000145C030E15582CE21E0EDBCF16F01F0E1A
:10B13000DBCF17F0D890175004E6980E165C030E7C
:10B1400017581EE2D950230FE96EDACFEAFFEE500E
:10B15000ED1016E1780EE66E020EE66E610EE66EFA
:10B160002CEC61F0E552E552E552780EE66E040EE5
:10B17000E66E7C0EE66E2CEC61F0E552E552E5528F
:10B180001E0EDBCF16F01F0EDBCF17F01C0EDB50B0
:10B19000165C146E1D0EDB501758156E153404E244
:10B1A00014503208000E15543CE21C0EDBCF14F094
:10B1B0001D0EDBCF15F0D890155004E6980E145CE8
:10B1C000030E15582EE21E0EDBCF16F01F0EDBCF3E
:10B1D00017F0D890175004E6980E165C030E175817
:10B1E00020E2D950230FE96EDACFEAFF010EEE1804
:10B1F00001E1ED5016E1780EE66E020EE66E7C0E71
:10B20000E66E2CEC61F0E552E552E552780EE66E02
:10B21000040EE66E560EE66E2CEC61F0E552E55239
:10B22000E55254D4270EE15C02E2E16AE552E16E98
:08B23000E552E7CFD9FF12003F
:08B2380058EC5EF0FB0EDBCFC9
:10B24000F3FFDB06F35000090AE0A6EC5EF0FA0E0D
:10B2500011EC5FF0F3E1151CF1E1010E01D0000EDD
:10B2600087EF5EF058EC5EF03B0EE12402E3E1680C
:10B27000E652E16E010EDB6A020EDB6AF90EDBCFED
:10B28000F6FFFA0EDBCFF7FFFB0EDBCFF8FF08006F
:10B29000F550DF6EDF5002E1ABEF5DF0250EDF5CB5
:10B2A00002E09EEF5DF0030EDB6A040EDB6A050E22
:10B2B000DB6A060EDB6A070EDB6AC0EC5DF02D0E62
:10B2C000DF5C0CE02B0EDF5C09E0200EDF5C06E0AB
:10B2D000230EDF5C03E0300EDF5C1AE1DF50300A42
:10B2E00014E0130A0FE0030A0AE00B0A05E0060A5D
:10B2F000E4E1030EDB80E1D7030EDB82DED7030E31
:10B30000DB84DBD7030EDB86D8D7030EDB88D5D7EB
:10B310002A0EDF5C1BE1BCEC5DF00AEC5EF010E095
:10B32000030EDB8008680968130EDBCF0DF0140EE6
:10B33000DBCF0EF0A5EC67F0040E06C0DBFF03D0F8
:10B34000130EF3EC5DF0C0EC5DF00BD0090EDB6A80
:10B3500061EC5EF003E0D5EC5EF0FAD7090EF3EC99
:10B360005DF0030EDBB0DB982E0EDF5C1BE1C0EC62
:10B370005DF02A0EDF5C0BE1BCEC5DF00AEC5EF0E8
:10B3800003E1130E45EC5EF0C0EC5DF00BD0090E4E
:10B39000DB6A61EC5EF003E0D5EC5EF0FAD7090EF3
:10B3A00045EC5EF0680EDF5C07E1C0EC5DF0680E16
:10B3B000DF5C1DE1030E18D0740EDF5C17E07A0E1F
:10B3C000DF5C14E0480EDF5C06E0540EDF5C03E057
:10B3D0005A0EDF5C02E1020E07D06C0EDF5C03E068
:10B3E0006A0EDF5C04E1010E98EC5EF0C9DBDF5011
:10B3F0006E0A01E17FD31E0A01E192D1200A01E128
:10B400008FD13F0A01E149D11A0A01E146D10D0A63
:10B4100001E143D1200A01E140D13A0A01E13DD1E5
:10B42000200A01E13AD1260A01E135D10D0A01E1F4
:10B4300032D11A0A01E1D9D0200A4AE0300A1FE0CD
:10B44000460A0EE0250A01E083D3D950F90FE96ED0
:10B45000FF0EDA20EA6E010EEE5E000EEE5AEE5A94
:10B46000A6EC5EF0250EE66E95DB03E1151C01E10E
:10B4700069D3A2EC5EF001E26BD3DB2A69D3080E3C
:10B48000DB6A040EDB50010806E2040EDB046AEC02
:10B490005EF0DB508BDB080EDB5009E0030EDB5067
:10B4A000010B05E172DB01E04DD3080EDB6A64DBC2
:10B4B000EFCFDFFF1AEC5FF003E1151C01E142D38F
:10B4C000A2EC5EF001E3DB2A60DB01E141D33AD379
:10B4D000070EDB5002080FE1E6EC5EF0030EADEC68
:10B4E0005EF00E0EEECFDBFF0F0EEECFDBFF100E89
:10B4F000EECFDBFF20D0F70EDBCF17F0F80EDBCF5F
:10B5000018F0020E175E000E185AF70E17C0DBFF78
:10B51000F80E18C0DBFF17C0E9FF18C0EAFF9DEC6A
:10B520005EF0166A0E0E14C0DBFF0F0E15C0DBFFB7
:10B53000100E16C0DBFF0E0EDBCFE6FF0F0EDBCFCB
:10B54000E6FF100EDBCFE6FFA9EC68F0E552E5520E
:10B55000E552130E07C0DBFF140E08C0DBFF060E1A
:10B56000DB5005E0130EE1EC5EF001E26ADB05EC76
:10B570005FF002E2130E37DBC8EC5EF006E0040E6B
:10B58000E1EC5EF002E2050E2EDB030EDBB005D02F
:10B59000FCDA01E0D7D2080EDB6A090EDB6A0E0E78
:10B5A000DBCFF6FF0F0EDBCFF7FF100EDBCFF8FF80
:10B5B0000800F550DF6EDF5014E00BEC5FF011E295
:10B5C0001AEC5FF003E1151C01E1BCD2BBDB01E327
:10B5D000DB2A090EDB2AD9500E0FE96E000ECBDBF9
:10B5E000E7D7D3DA01E1B4D2ADD2C6DA110EEECF8D
:10B5F000DBFF120EEDCFDBFF110EDBCFE6FF120EED
:10B60000DBCFE6FF9BEC68F0E552E552130EF3CF7B
:10B61000DBFF140EF4CFDBFF060EDB5004E0130E4D
:10B62000D0DB01E20EDB05EC5FF002E2130EDBDAA9
:10B63000AFDB05E0040EC5DB02E2050ED4DA030E33
:10B64000DBB005D0A2DA01E07DD2080EDB6A090E7C
:10B65000DB6A110EDBCFE9FF120EDBCFEAFFEFCF83
:10B66000DFFFDF5014E0D7DB12E2E4DB03E1151C5F
:10B6700001E168D267DB01E3DB2A090EDB2A110E48
:10B68000DB2ADBCFE9FF120EE8E3DB2AE6D77DDA1F
:10B6900001E15ED257D2030EDB8E070EDB0410E110
:10B6A00095DB040E5ADB0A0EEECFDBFF0B0EEECF5E
:10B6B000DBFF0C0EEECFDBFF0D0EEECFDBFF6CD011
:10B6C000070EDB5003082CE1030EDBAE0DD0B2DA1F
:10B6D000020E76DAEFCF14F0156A166A176A14AE06
:10B6E00039D01568166835D0F70EDBCF15F0F80E97
:10B6F000DBCF16F0020E155E000E165AF70E15C0BF
:10B70000DBFFF80E16C0DBFF15C0E9FF16C0EAFF2D
:10B71000EFCF14F00A0E14C0DBFF0B0EDB6A38D03B
:10B72000070EDB50020809E1030EDBAE04D059DB43
:10B7300016AE10D00ED055DB0DD0030EDBAE12D0FE
:10B7400079DA020E3DDAF9DA166A176A15AE02D016
:10B7500016681768E2DA0C0E16C0DBFF0D0E17C074
:10B76000DBFF1AD0F70EDBCF16F0F80EDBCF17F0A9
:10B77000020E165E000E175AF70E16C0DBFFF80E0B
:10B7800017C0DBFF16C0E9FF17C0EAFFD6DAC5DA3B
:10B790000C0EDB6A0D0EDB6A060EDB5005E1010EB6
:10B7A000F36E050EF3CFDBFF150EDB6A160EDB6AB8
:10B7B000D950370F146E000EDA20156E390E14C0F2
:10B7C000DBFF3A0E15C0DBFF380EDB6A080EDB6AC2
:10B7D0000A0EAEDADF50780A12E0200A10E0280ADA
:10B7E0000CE0200A0AE03F0A06E00D0A02E0200A07
:10B7F00008E1020E05D0080E03D0080EDF26100E59
:10B8000097DA030EDBBE02D0DB92DB94DB50800BB9
:10B8100024E08ADAD890030EEB50000A08E6000E06
:10B82000EE5C000EEE58000EEE58000EEE5815E2DB
:10B8300013DA0B680C680D680E6863EC68F00A0E8A
:10B8400002C0DBFF0B0E03C0DBFF0C0E04C0DBFFEE
:10B850000D0E05C0DBFF2D0E08D0030EDBA202D0BB
:10B860002B0E03D0DBA408D0200EF36E170EF3CFFF
:10B87000DBFF150EDB2A02D0170EDB6A050EDB504C
:10B8800003E1B7D901E189D0D00E146ED20E156E46
:10B89000000E166E070EDBCF17F0186A196A1A6AC7
:10B8A00017C00BF018C00CF019C00DF01AC00EF044
:10B8B000D3D9CEEC68F014500224F36E1550032057
:10B8C000F46E16500420F86EF4CFF7FFF3CFF6FFB6
:10B8D0000800090EF5CFDBFF580EDF5C0FE1610EAB
:10B8E000F36E090E7BD90AE3200E146E090EDBCF2E
:10B8F000E7FF1450E75E090EE7CFDBFF070EDBCF53
:10B9000014F0156A166A176A0FDA14C00BF015C026
:10B910000CF016C00DF017C00EF0EECF06F0EECF13
:10B9200007F0EECF08F0EFCF09F0CEEC68F009C0D9
:10B93000EDFF08C0EDFF07C0EDFF06C0EFFF390EB9
:10B94000DBCFE9FFDB063A0EDBCFEAFF01E2DB06E5
:10B95000090EDBCFEFFF150EDB2A4BD995E1030E65
:10B96000DBA61DD06F0EDF5C06E1C1D918E3150E12
:10B97000DB285BDA14D0780EDF5C09E0580EDF5C60
:10B9800006E0620EDF5C03E0420EDF5C08E1020EBF
:10B99000F36E160EF3CFDBFF02D0150EDB6A030E3B
:10B9A000DB50100B0EE0040EDBCF14F0050EDB5065
:10B9B000D880145406E2060EDB5003E1040EDB507F
:10B9C00034DA95D90AE2050EDBCFE7FF150EDB501E
:10B9D000E75E050EE7CFDBFF02D0050EDB6A040E43
:10B9E000DBCF14F0160E45D9D880145414E2160E8D
:10B9F000DBCFE6FF150EDBCFE6FF040EDBCFE6FF65
:10BA0000050EDB50E552E75CE552D880E754E5527D
:10BA1000D880E7545FD9030EDB50010B0BE1080E11
:10BA2000DB5008E0B2D801E08DD0080EDB50BED864
:10BA3000080EDB6A170EDB5007E088D9170EF1D924
:10BA400003E1151C01E17ED0160EDB5016E07ED915
:10BA5000300EE66E9FD802E1151C74E077D9DFCF77
:10BA6000E6FF21EC68F0E552E552E552F4CF15F01F
:10BA70000001F31C02E1151C65E0050EDBCF14F09C
:10BA8000160EDB50D880145409E2050EDBCFE7FF19
:10BA9000160EDB50E75E050EE7CFDBFF300EE66EDD
:10BAA000050ECBD94FE1390EDB2ADBCFE9FF3A0E89
:10BAB00001E3DB2ADBCFEAFF090EEFCFDBFFDB5030
:10BAC0000EE044D9090EADD902E1151C3BE0390E58
:10BAD000DB2ADBCFE9FF3A0EEDE3DB2AEBD755D8C3
:10BAE00031E1160EDBCFE6FF080EC3D8E552E7249E
:10BAF0005DD82ED0070EDB50030A1CE0010A14E0CB
:10BB0000030A07E07BD9DBCFEEFF020EDBCFEDFFB0
:10BB10001FD0F5D8196A17AE02D0186819682CD84A
:10BB2000BCD819C0EEFF14D0EAD817BE186824D8C4
:10BB3000B4D80ED063D9DBCFEFFF0AD07BD905E1B3
:10BB4000151C03E1F368F46810D0FCD801E3DB2A8C
:10BB500079D947EF59F0010EDBCF14F0020EDBCF9D
:10BB600015F014C0F3FF15C0F4FF3B0EE15C02E2D8
:10BB7000E16AE552E16ECBD029D9020EADEF5EF05D
:10BB800061D90800F550DF6E1200200EE66E080E37
:10BB90001DEF5FF021EC68F0E552E552E552F3CF7E
:10BBA00014F0F4CF15F00001F31C1200146E156AA6
:10BBB000D950010F4DD91450EE261550ED22120028
:10BBC000185E000E195AF70E18C0DBFFF80E19C0E8
:10BBD000DBFF18C0E9FF19C0EAFF1200DBCFF4FF5A
:10BBE000F350F45C1200DB50E76E040EE7CFDBFF8E
:10BBF00012000A0EDBCF14F00B0EDBCF15F00C0E8B
:10BC0000DBCF16F00D0EDBCF17F014501510161009
:10BC100017101200130EEECFDBFF140EEDCFDBFF7B
:10BC2000130EDBCF14F0140EDBCF15F00001800EE5
:10BC300015141200F70EDBCF18F0F80EDBCF19F059
:10BC40001200050EDB50E66ED950130F01D9E552F4
:10BC5000E750EE6EED6A12000A0EDBCF06F00B0E17
:10BC6000DBCF07F00C0EDBCF08F00D0EDBCF09F0B9
:10BC70001200DBCFE6FF150EDBCFE6FF050EDB5033
:10BC8000E552E724E552E7241200DB50CED8010E3E
:10BC9000F36E060EF3CFDBFF1200EE50EFCFEAFF9C
:10BCA000E96E16C0EEFF17C0EEFF18C0EEFF1200DF
:10BCB000D9CFE6FFDACFE6FFE1CFD9FFE2CFDAFF57
:10BCC0001200DFCFE6FFE66A2AEC69F0E552E552A2
:10BCD000F3501200E76E080EE7CFDBFF1200EECF45
:10BCE00014F0EECF15F0EFCF16F0176A1200050E24
:10BCF000DBCF14F0150EDB50D88014541200010E67
:10BD0000DBCF16F0020EDBCF17F0186A1200E552F7
:10BD1000E5CFDAFFE7CFD9FF12000A0E14C0DBFF30
:10BD20000B0E15C0DBFF1200D9500A0F28EF5FF091
:10BD3000F36E070EF3CFDBFF1200EECF14F0EFCF60
:10BD400015F01200010EDB2A020E1200FC0EDBCFF2
:10BD5000E6FFFD0EDBCFE6FF1200145E000E155A63
:10BD6000F70E14C0DBFFF80E15C0DBFF14C0E9FFAF
:10BD700015C0EAFF1200DA20EA6EEF2AEECFF6FFD6
:10BD8000000EEF22EECFF7FFEF22EECFF8FF12000A
:10BD9000040EDBCFE6FF130EDB50E552E75C9ADFC3
:10BDA000DB5004DF060EDB501200090EDB500A0DDB
:10BDB000F350DF24D00FE76E090EE7CFDBFFC0EFB3
:10BDC0005DF0DB50F36E050EEEEF5DF0F70EDBCFAE
:10BDD00014F0F80EDBCF15F01200DFCFE6FFCAEF4C
:10BDE0005DF028DF030EECDE6FEF5EF01CEC59F027
:10BDF000E552E552E552E55200091200BDDEEE5073
:10BE0000EFCFEAFFE96E010E1200130EDB50F36E66
:10BE1000040EEEEF5DF0040EDB50F36E090EEEEF54
:10BE20005DF0DBCFE6FFCAEF5DF0E76E050EE7CF12
:10BE3000DBFF12008BDFEDEF5EF0DBCFE6FF86DF8E
:10BE4000F6EF5EF0D950F90FE96EFF0EBBEF5EF032
:0ABE5000E96E000EDA20EA6E12001F
:06BE5A00D9CFE6FFE1CFA5
:10BE6000D9FF020EE126FD0EDBCF14F0DB06FE0E3D
:10BE7000DBCF15F001E2DB061450151011E0DE6A8D
:10BE8000DD6ADECF14F0DDCF15F0E30E145C0D0E8D
:10BE9000155805E2DF2A010E01E3DB2AF2D7E3D7CA
:10BEA000020EE15C02E2E16AE552E16EE552E7CFA3
:10BEB000D9FF1200D9CFE6FFE1CFD9FF060EE12668
:10BEC0008D9296928D9096908D8496948A9A939A5C
:10BED0008C92DE6ADE6ADE6ADD6ADD52DD52D9CF1F
:10BEE000E9FFDACFEAFF640EEE5C000EEE58000EBA
:10BEF000EE58000EEE580AE2D9CFE9FFDACFEAFF9A
:10BF0000EE2A000EEE22EE22EE22E9D78C82DE6AC5
:10BF1000DE6ADE6ADD6ADD52DD52D9CFE9FFDACFB3
:10BF2000EAFF640EEE5C000EEE58000EEE58000EB6
:10BF3000EE580AE2D9CFE9FFDACFEAFFEE2A000E87
:10BF4000EE22EE22EE22E9D7AE0EE66E70D8E55272
:10BF5000DB0EE66E6CD8E552230EE66E68D8E5522D
:10BF6000D90EE66E64D8E552220EE66E60D8E55230
:10BF7000A10EE66E5CD8E552C80EE66E58D8E552C2
:10BF8000DA0EE66E54D8E552120EE66E50D8E5523F
:10BF9000A80EE66E4CD8E5523F0EE66E48D8E55244
:10BFA000D50EE66E44D8E552A00EE66E40D8E552B6
:10BFB000810EE66E3CD8E552600EE66E38D8E5524A
:10BFC000D30EE66E34D8E552E66A31D8E552A60EB5
:10BFD000E66E2DD8E552AD0EE66E29D8E5528B0EF1
:10BFE000E66E25D8E552AF0EE66E21D8E5520A0E70
:10BFF000E66EE66A32DFE552E552A40EE66E17D829
:10C00000E552400EE66E13D8E552020EE66E0FD8EA
:10C01000E552100EE66E0BD8E552060EE15C02E228
:10C02000E16AE552E16EE552E7CFD9FF1200D9CFC0
:10C03000E6FFE1CFD9FF956AFE0EDB508C6E8D8056
:10C040008D828A9A8D948D928D828D849568E55229
:10C05000E7CFD9FF1200D9CFE6FFE1CFD9FF956A2C
:10C06000FE0EDB508C6E8D808D828A8A8D948D922F
:10C070008D828D849568E552E7CFD9FF1200D9CF24
:10C08000E6FFE1CFD9FF020EE126B00EDF6EB80E5B
:10C09000DF5C23E2DFCFE6FFCADFE552020EE66E89
:10C0A000C6DFE552100EE66EC2DFE552010EDB6A16
:10C0B000DB50146E156AD890155004E6840E145C9B
:10C0C000000E155808E2FE0EDBCFE6FFC4DFE55296
:10C0D000010EDB2AEDD7DF2ADAD7020EE15C03E29C
:10C0E00000D0E16AE552E16EE552E7CFD9FF1200D8
:10C0F000D9CFE6FFE1CFD9FF060EE126180EDF6E9D
:10C10000010EDB6AF70EDBCF08F0F80EDBCF09F08B
:10C11000020E08C0DBFF030E09C0DBFFD950F90F88
:10C12000E96EFF0EDA20EA6EFF0EEE1802E1FF0E56
:10C13000ED1801E187D0D950F70FE96EFF0EDA2034
:10C14000EA6E300EEE1801E1ED5040E1010EF36EA3
:10C15000FD0EF3CFDBFFFE0EDB6A040EDB6A050E7D
:10C16000DB6A040EDBCF14F0050EDBCF15F0D890A0
:10C17000155004E6350E145C000E155827E2020E29
:10C18000DBCFE6FFF90EDBCFE6FF010EDBCFE6FFEC
:10C1900094D8E552E552E552FD0EDBCF16F0FE0EC7
:10C1A000DBCF17F0020EDB501624146E030EDB50AB
:10C1B0001720156E020E14C0DBFF030E15C0DBFF47
:10C1C000040EDB2A050E01E3DB2ACBD7F70EDBCF0B
:10C1D00008F0F80EDBCF09F0020E08C0DBFF030EFB
:10C1E00009C0DBFFD950FB0FE96EFF0EDA20EA6EC3
:10C1F000EE50ED1026E0FD0EDBCF16F0FE0EDBCF8D
:10C2000017F0020EDB501624146E030EDB501720BD
:10C21000156E020E14C0DBFF030E15C0DBFF020E0D
:10C22000DBCFE6FFF90EDBCFE6FFDFCFE6FF45D839
:10C23000E552E552E552FB0EDB06FC0E01E2DB06A1
:10C24000D1D700D0060EE15C02E2E16AE552E16E70
:10C25000E552E7CFD9FF1200D9CFE6FFE1CFD9FFF2
:10C26000FD0EDB50B00FE76EFD0EE7CFDBFFFD0EDE
:10C27000DBCFE6FFDCDEE552020E146EFC0EDBCFF8
:10C28000E7FF1450E726FC0EE7CFDBFFDB500F0B78
:10C29000E66ECDDEE552FC0EDB380F0B0F0B100FF8
:10C2A000E66EC5DEE552FE0EDBCFE6FF3ED8E55278
:10C2B00000D0E552E7CFD9FF1200D9CFE6FFE1CF9A
:10C2C000D9FFE652FD0EDB50B00FE76EFD0EE7CF53
:10C2D000DBFFFD0EDBCFE6FFAADEE552FC0EDB50F6
:10C2E0000F0BE66EA4DEE552FC0EDB380F0B0F0BD6
:10C2F000100FE66E9CDEE552FE0EDBCFE6FF07D8A0
:10C30000E55200D0E552E552E7CFD9FF1200D9CF70
:10C31000E6FFE1CFD9FFFE0EDBCFE6FF9CDEE55264
:10C3200000D0E552E7CFD9FF1200D9CFE6FFE1CF29
:10C33000D9FF200E146EFE0EDBCFE7FF1450E75E30
:10C34000FE0EE7CFDBFFDBCFF6FFF76AF6BEF7683E
:10C35000050EF702F3CFF7FFF602F3CFF6FFF45026
:10C36000F726860EF626CB0EF7220800F550E66E6D
:10C3700072DEE552FE0EDBCFF6FFF76AF6BEF76817
:10C38000050EF702F3CFF7FFF602F3CFF6FFF450F6
:10C39000F726860EF626CB0EF722010EF626000EA5
:10C3A000F7220800F550E66E56DEE552FE0EDBCFB2
:10C3B000F6FFF76AF6BEF768050EF702F3CFF7FF50
:10C3C000F602F3CFF6FFF450F726860EF626CB0ED4
:10C3D000F722020EF626000EF7220800F550E66E50
:10C3E0003ADEE552FE0EDBCFF6FFF76AF6BEF768DF
:10C3F000050EF702F3CFF7FFF602F3CFF6FFF45086
:10C40000F726860EF626CB0EF722030EF626000E32
:10C41000F7220800F550E66E1EDEE552FE0EDBCF79
:10C42000F6FFF76AF6BEF768050EF702F3CFF7FFDF
:10C43000F602F3CFF6FFF450F726860EF626CB0E63
:10C44000F722040EF626000EF7220800F550E66EDD
:10C4500002DEE552E66AFFDDE55200D0E552E7CFA5
:10C46000D9FF1200D9CFE6FFE1CFD9FFE652FD0E8A
:10C47000DBCFE6FFDCDDE552020E146EFC0EDBCFF7
:10C48000E7FF1450E726FC0EE7CFDBFFDB500F0B76
:10C49000E66ECDDDE552FC0EDB380F0B0F0B100FF7
:10C4A000E66EC5DDE552FE0EDBCFE6FF3EDFE55270
:10C4B00000D0E552E552E7CFD9FF1200D9CFE6FF11
:10C4C000E1CFD9FFE652FC0EDB50B00FE76EFC0E59
:10C4D000E7CFDBFFFB0EDBCFE6FFFC0EDBCFE6FF9B
:10C4E000FD0EDBCFF6FFFE0EDBCFF7FF0800F550A9
:10C4F000E66EB8DFE552E552E552FD0EDB2ADBCFF2
:10C50000F6FFFE0E01E3DB2ADBCFF7FF0800F55054
:10C5100015E0FD0EDBCFF6FFFE0EDBCFF7FF0800C8
:10C52000F550DF6EFD0EDBCFF6FFFE0EDBCFF7FF23
:10C530000800F550E66EF9DEE552DFD7FD0EDBCFE1
:10C54000F6FFFE0EDBCFF7FF0800F550DF6EE55279
:10C55000E552E7CFD9FF1200D9CFE6FFE1CFD9FFEF
:10C56000E652FD0EDBCFE9FFFE0EDBCFEAFFEFCF99
:10C57000DFFFFC0EDB50B00FE76EFC0EE7CFDBFFFA
:10C58000FB0EDBCFE6FFFC0EDBCFE6FFFD0EDBCFC5
:10C59000E9FFFE0EDBCFEAFFEF50E66E63DFE55208
:10C5A000E552E552FD0EDB2ADBCFE9FFFE0E01E38B
:10C5B000DB2ADBCFEAFFEF5013E0FD0EDBCFE9FF14
:10C5C000FE0EDBCFEAFFEFCFDFFFFD0EDBCFE9FF93
:10C5D000FE0EDBCFEAFFEF50E66EA7DEE552E2D7B4
:10C5E000FD0EDBCFE9FFFE0EDBCFEAFFEFCFDFFF73
:10C5F000E552E552E7CFD9FF1200D9CFE6FFE1CFF0
:10C60000D9FF050EE126030EDB6A040EDB6A020E7B
:10C61000146EFA0EDBCFE7FF1450E726FA0EE7CFD1
:10C62000DBFFF90EDB50B00FDF6EFB0EDB50B00FFF
:10C63000DF5C35E2DFCFE6FFFADCE552FA0EDB50D5
:10C640000F0BE66EF4DCE552FA0EDB380F0B0F0B26
:10C650001009E66EECDCE552010EDB6AFC0EDB50E5
:10C66000F36E010EDBCFF4FFF350F45C16E2030E21
:10C67000DB2A040E01E3DB2AFD0EDBCFF6FFDB2A0B
:10C68000FE0EDBCFF7FF01E3DB2A0800F550E66E74
:10C69000E2DCE552010EDB2AE1D7DF2AC6D7050E20
:10C6A000E15C03E200D0E16AE552E16EE552E7CFDA
:04C6B000D9FF12009C
:0CC6B400D9CFE6FFE1CFD9FF030EE1264D
:10C6C00059D8736A820E726E739C94949396958C6B
:10C6D0007288728A949EE66AD0D8E552E76E020E9E
:10C6E000E7CFDBFF0000D950020FE96EDACFEAFF97
:10C6F000EF50070B020801E00000140EE66EBDD8F3
:10C70000E552E76E020EE7CFDBFF020EDB96DB8819
:10C71000020EDB80DB92DB94020EDBCFE6FF140E11
:10C72000E66E3AD8E552E552010EE66EA6D8E5521D
:10C73000DE6EDD6A0000110EE66E9FD8E552DE6EF9
:10C74000DD6A0000E66A110EE66E26D8E552E55273
:10C750000000110EE66E91D8E552DE6EDD6A000033
:10C76000030EE15C02E2E16AE552E16EE552E7CFD9
:10C77000D9FF1200550EA76EAA0EA76E0E01FF91EB
:10C78000090ECC6F0A0ED36F170EFB6F550EA76EF6
:10C79000AA0EA76EFF811200D9CFE6FFE1CFD9FF25
:10C7A000E652DF6AFE0EDB50140804E0FE0EDB509A
:10C7B000340806E1140EE66E60D8E552E00BDF6E39
:10C7C0008B9EA49EFE0EDB50756EA4AEFED70000BD
:10C7D0000000000000000000000000000000000059
:10C7E0000000000000000000000000000000000049
:10C7F0000000000000000000000000000000000039
:10C800000000000000000000000000000000000028
:10C810000000000000000000000000000000000018
:10C820000000000000000000000000000000000008
:10C8300000000000000000000000000000000000F8
:10C840000000000000000000000000000000A49EA6
:10C85000FE0EDB500A0805E1FD0EDB507F0B756E06
:10C8600004D0FD0EDB50DF10756EA4AEFED78B8EAC
:10C87000E552E552E7CFD9FF1200D9CFE6FFE1CF6D
:10C88000D9FF8B9EA49EFE0EDB508009756EA4AE70
:10C89000FED70000000000000000000000000000C3
:10C8A0000000000000000000000000000000000088
:10C8B0000000000000000000000000000000000078
:10C8C0000000000000000000000000000000000068
:10C8D0000000000000000000000000000000000058
:10C8E0000000000000000000000000000000000048
:10C8F0000000000000000000000000000000000038
:10C900000000000000000000000000000000000027
:10C910000000A49E756AA4AEFED78B8E755000D021
:08C92000E552E7CFD9FF120038
:08C92800030EB16EB392B3904F
:10C93000B396B288B28EB290B292A494B38E120023
:10C940002F0E926E0F01E00E486F1F0E496FC18EC1
:10C95000C19CC70EC1140809C16EF80EC1140209AA
:10C96000C16E498FC29CC29EC30EC2140809C26E1A
:10C97000C2801200D9DFA0EF64F0D9CFE6FFE1CF8B
:10C98000D9FF020EE126FE0EDB500F0BF36EF346CD
:10C99000F346C30EC214F310C26EFE0EDB50EA6AF9
:10C9A000050FE96E0E0EEA22EF503F0BF36EF346D1
:10C9B000F346030EB114F310B16EB38EB3820000D0
:10C9C0000000000000000000000000000000000067
:10C9D0000000000000000000000000000000000057
:10C9E000000000000000B392B280000000000000D0
:10C9F0000000000000000000000000000000000037
:10CA00000000000000000000000000000000000026
:10CA10000000B2909E9CC2829EACFED7C3CFDEFFC8
:10CA2000C4CFDDFFDECF14F0DDCF15F014C0F3FF6F
:10CA300015C0F4FF00D0020EE15C02E2E16AE552AB
:10CA4000E16EE552E7CFD9FF1200D9CFE6FFE1CF83
:10CA5000D9FF030EE126020EDB6A040EF36E020E0E
:10CA6000DBCFF4FFF350F45C01E383D0020EDB5024
:10CA7000EA6A050FE96E0E0EEA22EF6A020EDBCFBC
:10CA8000E6FF7BDFE552F3CFDEFFF4CFDDFFDECF45
:10CA900014F0DDCF15F0200E145C030E15582EE2B5
:10CAA000020EDB50EA6A050FE96E0E0EEA22EF5025
:10CAB0001F0809E1020EDB50EA6A050FE96E0E0E4F
:10CAC000EA22EF6A1AD0020EDB50EA6A050FE96E1D
:10CAD0000E0EEA22EF2A020EDBCFE6FF4EDFE55212
:10CAE000F3CFDEFFF4CFDDFFDECF14F0DDCF15F0A6
:10CAF000200E145C030E1558D3E338D0D9CFE9FFCC
:10CB0000DACFEAFF200ED880EE54030EED542EE269
:10CB1000020EDB50EA6A050FE96E0E0EEA22EF50B4
:10CB2000E10809E1020EDB50EA6A050FE96E0E0E1C
:10CB3000EA22EF6A1BD0020EDB50EA6A050FE96EAB
:10CB40000E0EEA22EF06020EDBCFE6FF16DFE552FD
:10CB5000F3CFDEFFF4CFDDFFD9CFE9FFDACFEAFF75
:10CB6000200ED880EE54030EED54D2E3020EDB2AE1
:10CB700074D7030EE15C02E2E16AE552E16EE55230
:06CB8000E7CFD9FF12000F
:0ACB860000000000003C7E7E7E3CB3
:10CB90000007000700FF81BD81FF7E7F7F7F7E232E
:10CBA0001308646236495522500005030000001C3A
:10CBB0002241000041221C0014083E081408083ECF
:10CBC00008080050300000080808080800606000ED
:10CBD0000020100804023E5149453E00427F4000BB
:10CBE00042615149462141454B311814127F1027AB
:10CBF000454545393C4A49493001710905033649E3
:10CC0000494936064949291E003636000000563685
:10CC100000000814224100141414141400412214BA
:10CC2000080000FF00000E1111110E7E1111117E7F
:10CC30007F494949363E4141413E7F4141221C7F67
:10CC4000494949417F090909013E4149497A7F081B
:10CC500008087F00417F410008080808087F081481
:10CC600022417F404040407F020C027F7F04081039
:10CC70007F3E4141413E7F090909063E4151215E07
:10CC80007F09192946464949493101017F01013F80
:10CC90004040403F1F2040201F3F4038403F63142A
:10CCA00008146307087008076151494543007F4134
:10CCB000410002040810200041417F0004020102EB
:10CCC0000440404040400001020400F8040204F81F
:10CCD0007F484444383844444420384444487F38EA
:10CCE00054545418087E0901020C5252523E7F08D7
:10CCF00004047800447D40002040443D007F10281B
:10CD0000440000417F40007C041804787C0804043F
:10CD10007838444444387C14141408081414187CDB
:10CD20007C080404084854545420043F4440203CE8
:10CD30004040207C2A55AA552A3C4030403C44289B
:10CD40001028440C5050503C4464544C4400083665
:10CD5000410000007F00000041360800020202028C
:01CD600002D0
:01CD610000D1
:0ECD62000001FDB122D0FD838B809490550E10
:10CD7000A76EAA0EA76E0E01FF910E0ED16F550E73
:10CD8000A76EAA0EA76EFF810F0EBA6ECF0EBA1451
:10CD90000009BA6EBB6A0F01526B800ECB6E040E97
:10CDA000CA6EA496600E776E7F0E766E120000013A
:10CDB000FD91FD938B80949012000001FDA109D09C
:10CDC0008B50010B04E19450010B01E1010CFD912A
:10CDD000C8DF0001FDA3C5DFA4A63AD0A496BA50CF
:10CDE000300BE842E842E842E842030819E1400E0D
:10CDF000BB5C10E18B909490BA6ACA6A0E01D16B49
:10CE00000F01526BCB68766A7768A4960001FD81AA
:10CE1000FD93010CBB2ACF0EBA140009BA6E000CA8
:10CE2000BA0EE96E0F0EEA6EEF50300BE842E842A0
:10CE3000E842E842E82AE850030BF36EF46EF3464A
:10CE4000F346F346F346CF0EEF14F310EF6EF450B3
:02CE5000000CD4
:0ECE5200D9CFE6FFDACFE6FFE1CFD9FFE2CF7E
:10CE6000DAFFE652E652E652E652D950F90F146E56
:10CE7000FF0EDA20156E020E14C0DBFF030E15C084
:10CE8000DBFF020EDBCFE6FF030EDBCFE6FFF90E82
:10CE9000DBCFE6FFFA0EDBCFE6FFFB0EDBCFE6FFD4
:10CEA000D950FC0FE66EFF0EDA20E66E32EC59F038
:10CEB000146E070EE15C02E2E16AE552E16E145085
:10CEC000F3CFDEFFF4CFDDFFFC0EDBCFE9FFFD0E7D
:10CED000DBCFEAFFEF6ADECF14F0DDCF15F014C030
:10CEE000F3FF15C0F4FF040EE15C02E2E16AE552D3
:0ECEF000E16EE552E5CFDAFFE7CFD9FF120081
:02CEFE00006AC8
:10CF00000EAE88EF67F00D6C0E1EE86A0E22001E52
:10CF100009AE90EF67F0086C091EE86A0922001E4E
:10CF200014EC69F009BEA0EF67F000AE000C086CCD
:10CF3000091EE86A0922046C051EE86A0522000C35
:10CF400000BE97EF67F00188FF0C09C013F008C01E
:10CF500012F008500D02F4CF07F0F3CF06F009509D
:10CF60000E02F4CF09F0F3CF08F00D02F3500726BC
:10CF7000F4500822E86A092212500E02F3500726E4
:10CF8000F4500822E86A09220EAECBEF67F0125087
:10CF9000085E1350095A13AE000C0D50085E0E5077
:04CFA000095A000C1E
:0CCFA4001E0EF66EA00EF76E000EF86E6A
:10CFB00000010900F550F26F0900F550F36F03E12D
:10CFC000F26701D03DD00900F550ED6F0900F55032
:10CFD000EE6F0900F550EF6F09000900F550E96E9A
:10CFE0000900F550EA6E090009000900F550F06FDC
:10CFF0000900F550F16F09000900F6CFF4F0F7CF02
:10D00000F5F0F8CFF6F0EDC0F6FFEEC0F7FFEFC099
:10D01000F8FF0001F05302E1F15307E00900F55079
:10D02000EE6EF007F8E2F107F9D7F4C0F6FFF5C0AD
:10D03000F7FFF6C0F8FF0001F207000EF35BBFD761
:02D040001200DC
:0ED04200D9CFE6FFDACFE6FFE1CFD9FFE2CF8C
:10D05000DAFFFB0EDBCF14F0FC0EDBCF15F0000186
:10D06000800E15141AE1FB0EDBCFE9FFFC0EDBCFBF
:10D07000EAFFEECFF3FFEDCFF4FFEE2A000EEF2232
:10D08000F3CFE9FFF4CFEAFFFD0EDBCFEFFFEF5068
:10D09000156AF36E15C0F4FF10D0FB0EDB50FE08CE
:10D0A00006E1FD0EDBCFE6FF5AEC69F005D0FD0E80
:10D0B000DBCFE6FF03EC50F0E552E552E5CFDAFFB7
:06D0C000E7CFD9FF1200CA
:0AD0C60006500B02F3CF02F0F4CF86
:10D0D00003F00C02F3500326000EF420046E0650F9
:10D0E0000D02F3500426000EF420056E06500E02C9
:10D0F000F350052607500B02F3500326F450042288
:10D10000000E052207500C02F3500426F4500522AD
:10D1100007500D02F350052608500B02F350042669
:10D12000F450052208500C02F350052609500B025A
:06D13000F3500526120079
:0AD13600FE0EE3CFE9FFFF0EE3CF8A
:10D14000EAFFF36AF46AEE5203E0F34AF42AFBD7EB
:10D150001200FF0EE3CFF8FFE552FF0EE3CFF7FF1B
:10D16000E552FF0EE3CFF6FFE552E66AE66AE66AAD
:10D170000900F55209E0FD0EE32A05E1FE0EE32A5F
:10D1800002E1FF0EE32AF4D7FD0EE3CF07F0FE0E17
:0CD19000E3CF08F0FF0EE3CF09F012001F
:04D19C00056A046AB2
:10D1A000036A026A200EE76ED89006360736083604
:10D1B000093602360336043605360B50025C0C5035
:10D1C00003580D5004580E50055809E30B50025EE9
:10D1D0000C50035A0D50045A0E50055A062AE72ED9
:04D1E000E4D712007E
:0CD1E400253364002534640044007E0004
:10D1F00021007C005F00550020204C21522020009F
:10D20000593A005B20202020203F20202020205D54
:10D2100000583A005F5F5F00423A004000543A0015
:07D220005D005B00503A00C5
:08D22800056A046A100EE76EAE
:10D23000D89008360936043605360D50045C0E5079
:10D24000055805E30D50045E0E50055A082AE72ED6
:04D25000F0D7120001
:0CD25400F36AF46AFF0EE124E96EFF0E9D
:10D26000E220EA6EED6607D02F0EEF6404D03A0E8E
:08D27000EF6001D0F32A120067
:08D27800C00EF36E00EE00F0A1
:10D280000E0E01D81200EA6002D0EE6AFCD7F3500D
:08D29000E9601200EE6AFCD710
:08D298001DEE00F02DEE00F088
:10D2A000F86A019CD2EC67F007EC50F00DEC55F0F9
:04D2B000FBD7120096
:0CD2B400FF0EE350ADBA04D0B06AAC8E9F
:10D2C000AD8A949CADA2FED7AE6EF36EF46A1200E6
:10D2D00030313233343536373839616263646566EC
:01D2E000004D
:01FFF800AA5E
:01FFF900F710
:01FFFA001FE7
:01FFFB00FF06
:01FFFC0063A1
:01FFFD00F80B
:01FFFE008181
:01FFFF00F110
:00000001FF
